{
  "contractName": "dBank",
  "abi": [
    {
      "inputs": [
        {
          "internalType": "contract Token",
          "name": "_token",
          "type": "address"
        }
      ],
      "stateMutability": "nonpayable",
      "type": "constructor"
    },
    {
      "anonymous": false,
      "inputs": [
        {
          "indexed": true,
          "internalType": "address",
          "name": "user",
          "type": "address"
        },
        {
          "indexed": false,
          "internalType": "uint256",
          "name": "etherAmount",
          "type": "uint256"
        },
        {
          "indexed": false,
          "internalType": "uint256",
          "name": "timeStart",
          "type": "uint256"
        }
      ],
      "name": "Deposit",
      "type": "event"
    },
    {
      "anonymous": false,
      "inputs": [
        {
          "indexed": true,
          "internalType": "address",
          "name": "user",
          "type": "address"
        },
        {
          "indexed": false,
          "internalType": "uint256",
          "name": "etherAmount",
          "type": "uint256"
        },
        {
          "indexed": false,
          "internalType": "uint256",
          "name": "depositTime",
          "type": "uint256"
        },
        {
          "indexed": false,
          "internalType": "uint256",
          "name": "interest",
          "type": "uint256"
        }
      ],
      "name": "Withdraw",
      "type": "event"
    },
    {
      "inputs": [
        {
          "internalType": "address",
          "name": "",
          "type": "address"
        }
      ],
      "name": "depositStart",
      "outputs": [
        {
          "internalType": "uint256",
          "name": "",
          "type": "uint256"
        }
      ],
      "stateMutability": "view",
      "type": "function",
      "constant": true
    },
    {
      "inputs": [
        {
          "internalType": "address",
          "name": "",
          "type": "address"
        }
      ],
      "name": "etherBalanceOf",
      "outputs": [
        {
          "internalType": "uint256",
          "name": "",
          "type": "uint256"
        }
      ],
      "stateMutability": "view",
      "type": "function",
      "constant": true
    },
    {
      "inputs": [
        {
          "internalType": "address",
          "name": "",
          "type": "address"
        }
      ],
      "name": "isDeposited",
      "outputs": [
        {
          "internalType": "bool",
          "name": "",
          "type": "bool"
        }
      ],
      "stateMutability": "view",
      "type": "function",
      "constant": true
    },
    {
      "inputs": [],
      "name": "deposit",
      "outputs": [],
      "stateMutability": "payable",
      "type": "function",
      "payable": true
    },
    {
      "inputs": [],
      "name": "withdraw",
      "outputs": [],
      "stateMutability": "nonpayable",
      "type": "function"
    }
  ],
  "bytecode": "0x608060405234801561001057600080fd5b50604051610d20380380610d208339818101604052810190610032919061008d565b806000806101000a81548173ffffffffffffffffffffffffffffffffffffffff021916908373ffffffffffffffffffffffffffffffffffffffff16021790555050610111565b600081519050610087816100fa565b92915050565b60006020828403121561009f57600080fd5b60006100ad84828501610078565b91505092915050565b60006100c1826100da565b9050919050565b60006100d3826100b6565b9050919050565b600073ffffffffffffffffffffffffffffffffffffffff82169050919050565b610103816100c8565b811461010e57600080fd5b50565b610c00806101206000396000f3fe60806040526004361061004a5760003560e01c8063179fc99f1461004f5780633ccfd60b1461008c57806373732024146100a3578063d0e30db0146100e0578063ff87930a146100ea575b600080fd5b34801561005b57600080fd5b5061007660048036038101906100719190610768565b610127565b60405161008391906108cb565b60405180910390f35b34801561009857600080fd5b506100a161013f565b005b3480156100af57600080fd5b506100ca60048036038101906100c59190610768565b6104e8565b6040516100d79190610850565b60405180910390f35b6100e8610508565b005b3480156100f657600080fd5b50610111600480360381019061010c9190610768565b61073b565b60405161011e91906108cb565b60405180910390f35b60016020528060005260406000206000915090505481565b60011515600360003373ffffffffffffffffffffffffffffffffffffffff1673ffffffffffffffffffffffffffffffffffffffff16815260200190815260200160002060009054906101000a900460ff161515146101d2576040517f08c379a00000000000000000000000000000000000000000000000000000000081526004016101c99061088b565b60405180910390fd5b6000600160003373ffffffffffffffffffffffffffffffffffffffff1673ffffffffffffffffffffffffffffffffffffffff1681526020019081526020016000205490506000600260003373ffffffffffffffffffffffffffffffffffffffff1673ffffffffffffffffffffffffffffffffffffffff16815260200190815260200160002054426102639190610a38565b90506000662386f26fc10000600160003373ffffffffffffffffffffffffffffffffffffffff1673ffffffffffffffffffffffffffffffffffffffff168152602001908152602001600020546102b991906109ad565b6301e337316102c891906109de565b9050600082826102d891906109de565b90503373ffffffffffffffffffffffffffffffffffffffff166108fc859081150290604051600060405180830381858888f19350505050158015610320573d6000803e3d6000fd5b5060008054906101000a900473ffffffffffffffffffffffffffffffffffffffff1673ffffffffffffffffffffffffffffffffffffffff166340c10f1933836040518363ffffffff1660e01b815260040161037c929190610827565b600060405180830381600087803b15801561039657600080fd5b505af11580156103aa573d6000803e3d6000fd5b505050506000600260003373ffffffffffffffffffffffffffffffffffffffff1673ffffffffffffffffffffffffffffffffffffffff168152602001908152602001600020819055506000600160003373ffffffffffffffffffffffffffffffffffffffff1673ffffffffffffffffffffffffffffffffffffffff168152602001908152602001600020819055506000600360003373ffffffffffffffffffffffffffffffffffffffff1673ffffffffffffffffffffffffffffffffffffffff16815260200190815260200160002060006101000a81548160ff0219169083151502179055503373ffffffffffffffffffffffffffffffffffffffff167f02f25270a4d87bea75db541cdfe559334a275b4a233520ed6c0a2429667cca948585846040516104da9392919061090f565b60405180910390a250505050565b60036020528060005260406000206000915054906101000a900460ff1681565b60001515600360003373ffffffffffffffffffffffffffffffffffffffff1673ffffffffffffffffffffffffffffffffffffffff16815260200190815260200160002060009054906101000a900460ff1615151461059b576040517f08c379a0000000000000000000000000000000000000000000000000000000008152600401610592906108ab565b60405180910390fd5b662386f26fc100003410156105e5576040517f08c379a00000000000000000000000000000000000000000000000000000000081526004016105dc9061086b565b60405180910390fd5b34600160003373ffffffffffffffffffffffffffffffffffffffff1673ffffffffffffffffffffffffffffffffffffffff16815260200190815260200160002060008282546106349190610957565b9250508190555042600260003373ffffffffffffffffffffffffffffffffffffffff1673ffffffffffffffffffffffffffffffffffffffff168152602001908152602001600020600082825461068a9190610957565b925050819055506001600360003373ffffffffffffffffffffffffffffffffffffffff1673ffffffffffffffffffffffffffffffffffffffff16815260200190815260200160002060006101000a81548160ff0219169083151502179055503373ffffffffffffffffffffffffffffffffffffffff167f90890809c654f11d6e72a28fa60149770a0d11ec6c92319d6ceb2bb0a4ea1a1534426040516107319291906108e6565b60405180910390a2565b60026020528060005260406000206000915090505481565b60008135905061076281610bb3565b92915050565b60006020828403121561077a57600080fd5b600061078884828501610753565b91505092915050565b61079a81610a6c565b82525050565b6107a981610a7e565b82525050565b60006107bc602283610946565b91506107c782610b12565b604082019050919050565b60006107df601a83610946565b91506107ea82610b61565b602082019050919050565b6000610802601d83610946565b915061080d82610b8a565b602082019050919050565b61082181610aaa565b82525050565b600060408201905061083c6000830185610791565b6108496020830184610818565b9392505050565b600060208201905061086560008301846107a0565b92915050565b60006020820190508181036000830152610884816107af565b9050919050565b600060208201905081810360008301526108a4816107d2565b9050919050565b600060208201905081810360008301526108c4816107f5565b9050919050565b60006020820190506108e06000830184610818565b92915050565b60006040820190506108fb6000830185610818565b6109086020830184610818565b9392505050565b60006060820190506109246000830186610818565b6109316020830185610818565b61093e6040830184610818565b949350505050565b600082825260208201905092915050565b600061096282610aaa565b915061096d83610aaa565b9250827fffffffffffffffffffffffffffffffffffffffffffffffffffffffffffffffff038211156109a2576109a1610ab4565b5b828201905092915050565b60006109b882610aaa565b91506109c383610aaa565b9250826109d3576109d2610ae3565b5b828204905092915050565b60006109e982610aaa565b91506109f483610aaa565b9250817fffffffffffffffffffffffffffffffffffffffffffffffffffffffffffffffff0483118215151615610a2d57610a2c610ab4565b5b828202905092915050565b6000610a4382610aaa565b9150610a4e83610aaa565b925082821015610a6157610a60610ab4565b5b828203905092915050565b6000610a7782610a8a565b9050919050565b60008115159050919050565b600073ffffffffffffffffffffffffffffffffffffffff82169050919050565b6000819050919050565b7f4e487b7100000000000000000000000000000000000000000000000000000000600052601160045260246000fd5b7f4e487b7100000000000000000000000000000000000000000000000000000000600052601260045260246000fd5b7f4572726f722c206465706f736974206d757374206265203e3d20302e3031204560008201527f5448000000000000000000000000000000000000000000000000000000000000602082015250565b7f4572726f722c206e6f2070726576696f7573206465706f736974000000000000600082015250565b7f4572726f722c206465706f73697420616c726561647920616374697665000000600082015250565b610bbc81610a6c565b8114610bc757600080fd5b5056fea2646970667358221220cc088f57af58d6fe9dc75d45b904077e46f47d7341747a34254ca38275cfb19464736f6c63430008030033",
  "immutableReferences": {},
  "source": "// SPDX-License-Identifier: MIT\r\n\r\nimport \"./Token.sol\";\r\n\r\ncontract dBank {\r\n    Token private token;\r\n    mapping(address => uint) public etherBalanceOf;\r\n    mapping(address => uint) public depositStart;\r\n    mapping(address => bool) public isDeposited;\r\n\r\n    event Deposit(address indexed user, uint etherAmount, uint timeStart);\r\n    event Withdraw(address indexed user, uint etherAmount, uint depositTime, uint interest);\r\n\r\n    constructor(Token _token) {\r\n        token = _token;\r\n    }\r\n\r\n    function deposit() external payable {\r\n        require(isDeposited[msg.sender] == false, 'Error, deposit already active');\r\n        require(msg.value >= 1e16, 'Error, deposit must be >= 0.01 ETH');\r\n\r\n        etherBalanceOf[msg.sender] += msg.value;\r\n        depositStart[msg.sender] += block.timestamp;\r\n        isDeposited[msg.sender] = true;\r\n\r\n        emit Deposit(msg.sender, msg.value, block.timestamp);\r\n    }\r\n\r\n    function withdraw() external {\r\n        require(isDeposited[msg.sender] == true, 'Error, no previous deposit');\r\n        uint userBalance = etherBalanceOf[msg.sender];\r\n\r\n        uint depositTime = block.timestamp - depositStart[msg.sender];\r\n\r\n        uint interestPerSecond = 31668017 * (etherBalanceOf[msg.sender] / 1e16);\r\n        uint interest = interestPerSecond * depositTime;\r\n\r\n        payable(msg.sender).transfer(userBalance);\r\n        token.mint(msg.sender, interest);\r\n\r\n        depositStart[msg.sender] = 0;\r\n        etherBalanceOf[msg.sender] = 0;\r\n        isDeposited[msg.sender] = false;\r\n\r\n        emit Withdraw(msg.sender, userBalance, depositTime, interest);\r\n    }\r\n}",
  "sourcePath": "/mnt/c/Users/guill/Desktop/Directory/social-network/ethereum/contracts/dBank.sol",
  "compiler": {
    "name": "solc",
    "version": "0.8.3+commit.8d00100c.Emscripten.clang"
  },
  "schemaVersion": "3.3.4",
  "updatedAt": "2021-04-24T10:34:44.654Z",
  "networkType": "ethereum",
  "devdoc": {
    "kind": "dev",
    "methods": {},
    "version": 1
  },
  "userdoc": {
    "kind": "user",
    "methods": {},
    "version": 1
  }
}